:020000021000EC
:1080000000400020113A02004D3A02004F3A0200AF
:108010000000000000000000000000000000000060
:10802000000000000000000000000000513A0200C3
:108030000000000000000000533A0200553A020020
:10804000573A020081CC0100E1380200573A0200A1
:10805000573A020000000000C9310200573A0200FE
:10806000573A0200912D0200812A0200573A02007D
:10807000573A0200573A0200573A0200573A0200B4
:10808000573A0200573A0200573A0200573A0200A4
:10809000573A02001518020011260200573A020052
:1080A000573A0200573A02000000000000000000AA
:1080B00000000000000000000000000000000000C0
:1080C00008B5054B054803331B1A062B03D9044B8F
:1080D000002B00D0984708BDC4200020C4200020F9
:1080E000000000000648074908B5091A8910CB0F9F
:1080F0005918491003D0044B002B00D0984708BDF5
:10810000C4200020C42000200000000010B5074C4F
:108110002378002B09D1FFF7D3FF054B002B02D0AA
:10812000044800E000BF0123237010BDE0200020C0
:1081300000000000080E030008B5094B002B03D017
:108140000848094900E000BF08480368002B02D135
:10815000FFF7C8FF08BD064B002BF9D09847F7E79B
:1081600000000000080E0300E4200020C4200020CE
:1081700000000000144B002B00D1124B9D46402202
:1081800092029A1A924600218B460F461148124AD3
:10819000121A17F051F90D4B002B00D098470C4BD9
:1081A000002B00D098470020002104000D000B4850
:1081B00017F0FDF810F0B6FD2000290016F091FD33
:1081C00010F086FD000008000040002000000000C4
:1081D00000000000C8200020802A0020FD8C020042
:1081E00008B5024802F052FA08BDC046A825002092
:1081F000024B002800D1024B181C704760FF0200A0
:108200006CFF0200802208B51206031E934201D1C2
:10821000074802E0002804DA404201F085FD4042B0
:1082200005E00020834202D0181C01F07DFD08BD4E
:10823000FFFFFF7F024B1B68588C40007047C04611
:1082400000250020064B10B51C68FFF7F3FF00194E
:10825000830504D08023800A8002DB00C01810BD93
:1082600000250020014B18687047C046FC24002000
:10827000F7B54368026801919B1A061CDB101A4986
:108280000122002B03D05A000C1C9A4202D38A42CE
:1082900026D9154CE00002F0D9F8071C33689C463B
:1082A000624673689D1AEB1000937B19002B02D075
:1082B000019806C806C3009B002B04D0381C6146F9
:1082C0002A1C17F0A5F8306808357D19002801D060
:1082D00002F0DEF8E40037603F197560B760F7BD63
:1082E000141C171EDAD0D5E7FFFFFF1FC31F0020A5
:1082F000122B02D8014A9B009858704778FF020061
:10830000014B98687047C046C820002010B50C1C6F
:10831000FFF7ECFF002805D0FA22211CD200024B07
:1083200004F0A0FB10BDC046DC05000008B5FFF757
:10833000DDFF014B186008BD0021002070B5144C12
:10834000061C23680D1C002B02D10720FFF7EEFF4F
:108350002068002E03DC002104F0F2FA0BE08021FB
:10836000890004F0EDFA311C0A480BF041FD011CB4
:10837000206804F0A3FB002D09DD281C01F020FF7C
:108380002068002104F0DCFA052016F03AFD70BDEB
:108390000021002040420F00F7B5041C081C0E1CF1
:1083A000171C11F026FD051C021D0097331C6100EF
:1083B000024803F091FE281CFEBDC046BC210020EF
:1083C00013B50B1C141C41001A1D03485B88009454
:1083D00003F0CCFE13BDC046BC21002037B5094CCC
:1083E0002368002B0CD11C2002F030F80123051C5F
:1083F0005B4200931521162218330AF0CBF9256051
:1084000020683EBDFC200020F0B5164C061C2068FC
:1084100085B00D1C171C002804D003689B68984782
:1084200000232360301CFFF761FF867B281CFFF7C9
:108430005DFF857B381CFFF759FF837B1C2003936E
:1084400002F004F86B46071C01201B7B40420090A1
:1084500071B26AB25BB2381C0AF09CF9276005B0B1
:10846000F0BDC046FC20002013B50B4B400019683E
:108470000918684602F09CF9694601A812F044FF09
:1084800001A802F0A5F9041C01A812F032FE68460A
:1084900012F02FFE201C16BD002500201FB5031C66
:1084A0000C1C03A8191C02F083F9002362420093FC
:1084B000019303A9034803F017FD03A812F019FE66
:1084C0001FBDC046F0210020031C30B585B00C1C38
:1084D00003A8191C151C02F06BF9002362420093DB
:1084E00003A90195034803F0FFFC03A812F001FE65
:1084F00005B030BDF0210020031C30B585B00C1C48
:1085000002A8191C151C02F053F902A903A812F0C5
:10851000FDFDFF235B420093002303A92A1C019366
:108520000548231C03F09EFD03A812F0E2FD02A8FB
:1085300012F0DFFD05B030BDF021002070B5041C45
:108540000E1C082806D10F4D281C12F0CCFF022863
:1085500013DD03E0031C093B012B05D9321C1B2052
:10856000211C00F07BFB70BD064D281C12F0BBFFE8
:108570000528F3DC281C082101E0281C042112F046
:10858000ADFFEBE7C822002008B5031E0948012B08
:1085900002D0022B03D1084813F055F805E0002063
:1085A0001A2B05D1054813F036FE431E9841C0B280
:1085B00008BDC0466822002090220020B82200207A
:1085C000F7B501211E4812F090FF0EF091FA041C3D
:1085D0000D1C1B48012112F09BFF0EF089FA061CAE
:1085E0000F1C1748012112F0A6FF0EF081FA221C81
:1085F000009001912B1C201C291C0DF02FFC321C1B
:108600003B1C041C0D1C301C391C0DF027FC021CEB
:108610000B1C201C291C0CF0BBFC0D1C041C00981E
:108620000199021C0B1C0DF019FC021C0B1C201CD8
:10863000291C0CF0ADFC0EF08DFF0EF023FAFEBDF0
:10864000C822002008B5031C0020032B15D8181CD5
:108650000BF034FB02070C110121084812F045FF12
:108660000BE00121054812F053FF06E00121034809
:1086700012F061FF01E0FFF7A3FF08BDC822002050
:1086800008B5024813F0C0FA08BDC046F02100202A
:1086900008B5024802F0D2FE08BDC04614230020EF
:1086A00008B5024813F0BFFF08BDC046682300208C
:1086B00008B5002805D0012807D1054802F048FC7C
:1086C00004E0034802F02EFC00E0002008BDC04694
:1086D000C822002038B5144C051C201C13F07CF86F
:1086E000002802D1201C02F083FE0020032D1AD89E
:1086F000281C0BF0E3FA02070C11201C012112F0D8
:10870000FBFF0CE0201C012113F008F807E0201CFF
:10871000012113F015F802E0201C13F01DF8FA21D6
:1087200089000BF065FB38BD1423002008B5024812
:1087300002F05EFE08BDC0461423002008B5011CEF
:10874000014812F0CBFE08BDC82200201FB5021C54
:108750000849038809688068411A00911179064820
:108760000191517904300291044916F011FB05B0D2
:1087700000BDC0460025002004210020B0050300F4
:1087800007B503884168021C03480091043003497F
:1087900016F0FEFA07BDC04604210020DE050300E6
:1087A00007B503884168021C03480091043003495F
:1087B00016F0EEFA07BDC04604210020F5050300BF
:1087C00007B54188038889000988021C0348009185
:1087D0000430034916F0DCFA07BDC046042100202E
:1087E0000F06030007B503888168021C4068091A58
:1087F0000348C91000910430024916F0C9FA07BDB8
:10880000042100203006030010B5041C034B036054
:10881000403012F0A6FB201C10BDC046F0F902004B
:1088200008B50423002810D03F2801D840000BE0F1
:10883000074B984206D8FB3BFF3B584303210BF004
:10884000D7FA01E00130FF3083B2181C08BDC046E2
:10885000FF010000C38870B5051C0C1C161C994252
:1088600006D3084B994206D8013189B211F0E0FBDA
:108870002A68A3009E50AB88A34201D80134AC8083
:1088800070BDC046FEFF000073B5051C0C4CEA88A5
:10889000201D0092AB880B492A6816F079FA002651
:1088A000EB88201D9E4207D22A68B30006499A58D9
:1088B00016F06EFA0136F3E7044916F069FA73BD53
:1088C00004210020480603006B060300F1060300A4
:1088D00013B5041C4288038892005288064900920E
:1088E0000289064801920430221C16F051FA201D1C
:1088F000FFF7CAFF13BDC0466F0603000421002026
:1089000002230380024B9B0843800023436070478F
:10891000D4FF020002230380024B9B084380002304
:1089200043607047F4FF020002230380034B9B085F
:108930004380002343608360C360704704000300EA
:1089400008B5021C04480B1C0430044916F020FA38
:108950002A2001F01DF908BD04210020970603001C
:1089600010B5002807D0041C11F041FC0248211C5E
:10897000024A12F0FAF910BDF7A302009DA302000B
:10898000F8B5071C00200C1C161C874204DBF80FEE
:10899000CB17B9425841C0B20921012211F012FC93
:1089A0000020A74204DCFF23E20FA3425041C0B2E3
:1089B0000921022211F006FC1A4D76002B680521D0
:1089C000985B194BC01842424241101C032211F01F
:1089D000F9FB2B6805219B195B88042258425841FA
:1089E00011F0F0FB2B689E19301C002C18D0A00051
:1089F0000C3001F02BFD051E04D0022303800B4B2D
:108A00009B0843800123281C04361E43E2B22C71CC
:108A10006F71AE6092000C30002116F00DFD281C25
:108A2000F8BDC046002500200100FFFF2400030020
:108A3000F7B5012701930368041C0E1C151C3B426B
:108A40000ED111F0C7FB201C2A1C311C019BA5680C
:108A50000C30A847051C201C10F0C0FE281C10E09C
:108A6000084B00880521C018424242410434101CC2
:108A7000042211F0A7FB27430020311C2A1C019B74
:108A8000B847FEBD0100FFFF38B5144B40001C681D
:108A900009212418A3681248181A42424241101CA6
:108AA000032211F08FFBE3680E480921181A424295
:108AB0004241101C042211F085FB208801F0C6FC05
:108AC000051E03D002230380A30843802288281DAB
:108AD000043A002116F0B0FC281C38BD0025002007
:108AE000C1A20200C1870100022310B50380002348
:108AF000041C4380436003814381012907D09942CC
:108B000003D0032907D1074B02E0074B00E0074BD6
:108B10009B08638003E00920191CFFF711FF201C4C
:108B200010BDC046E4FF0200C4FF020014000300B1
:108B300013B50C1C002810D1211C01A801F0AEFDBA
:108B4000064801A96422EC3003F02AFA01A812F0C9
:108B500008FA642001F034FBEEE713BD0421002085
:108B6000014B1B681869704700250020014B1B68EA
:108B70009869704700250020014B1B68188C7047CE
:108B80000025002038B5051C042000F0FBFF2B68F1
:108B9000114A1249981842424241D0B2FFF7C8FF29
:108BA0006B680F4C188C236011F02CFC0D4B246863
:108BB000186022680C4B00209A4205D12369A868EE
:108BC000181A42424241D0B20849FFF7B1FF0123CF
:108BD00030341C43A04738BDF7BDFFFFA706030094
:108BE00000250020FC240020708E3B92BE0603006E
:108BF00008B50248FFF7C6FF08BDC046C0F6020030
:108C000070B5041C86B000900191029286B269464C
:108C100010221048039316F0F2FB0F4D240C281C71
:108C200004A90496059411F076FC0068002802D08F
:108C3000211C11F0DAFB0023281C04A904960593DB
:108C400011F069FC0068002802D0211C11F0CDFB56
:108C500006B070BDC820002004250020F0B585B006
:108C600002900391061C0D1C184802A9171C11F054
:108C700052FC0068002802D011F00DFB1AE02820F9
:108C800001F0E4FB1023041CB1B20093AAB2104B14
:108C900012F006F90F48211CD03003685B68984732
:108CA000002807D0002C05D0201C12F010F9201C41
:108CB00001F0EEFB381C11F09AFA02A90348029663
:108CC000039511F028FC076005B0F0BD04250020D5
:108CD000018C01000421002070B50F4C201C00F015
:108CE00091FD0E4E201C321C0D4916F08FFA0D4CD2
:108CF0000021251D281C102216F09EFB0023321C8B
:108D00006361E56025610849201C16F07FFA074879
:108D100012F0C1F970BDC0460421002000200020DF
:108D2000318D010004250020A5A40200C8200020E8
:108D3000EB23194A9B0010B5C2501C33041CC01809
:108D400012F00FF9F1239B00E01812F00AF98423C6
:108D50009B00E01802F0BCF9201CC530FF3001F088
:108D6000BFFE201C8D30FF3002F078F9201C6530EA
:108D7000FF3002F073F9201CEC3002F07DFE201C65
:108D8000D03003F00BFC201C643009F0B5FC201D32
:108D9000FFF73AFD201C10BD28FB020038B5074B39
:108DA0001C68002C09D1FFF74DFA051C1C2001F0AE
:108DB0004DFB291C221C04F0C5FF38BDC425002032
:108DC00030B5051C0C1C87B0FFF7E8FF291C01A873
:108DD00001F04CFC211C02A801F048FC01A903A8E9
:108DE00012F01FF9072203A904A804F0EDFD03A85F
:108DF00012F0B7F802A903A812F013F903A904A806
:108E000013F05EFC03A812F0ACF803A80B4901F0C4
:108E100045FC03A904A813F053FC03A812F0A1F821
:108E200004A804F03DFE04A813F056FC02A812F0BA
:108E300098F801A812F095F807B030BDF0060300CD
:108E400010B5041C8CB0FFF7A9FF211C01A801F08C
:108E50000DFC01A904A812F0E4F802A804A9072255
:108E600004F0B2FD04A812F07CF8202202A804A9A4
:108E700004F0E0FD021E05DD04A90123074804F00B
:108E8000F5F8F2E702A804F00BFE02A813F024FCA8
:108E900001A812F066F80CB010BDC04608210020F1
:108EA00013B5041CFFF77AFF211C01A801F0DEFBBB
:108EB000019B191D034B186805F0A6FA01A812F0D2
:108EC00050F813BDC425002013B5041CFFF766FF3E
:108ED000211C01A801F0CAFB019B191D034B186856
:108EE00005F0D8F901A812F03CF813BDC425002004
:108EF00010B5041C88B0FFF751FF2F4B2F4918689D
:108F000005F0C8F92E4904A801F0C8FB211C03A8EC
:108F100001F0ACFB05A804A903AA12F099F805A971
:108F2000012206A804F050FD05A812F01AF803A8C3
:108F300012F017F804A812F014F806A813F0C8FBF2
:108F4000002830D003A801F0E3FB04A801F0E0FB07
:108F5000202205A806A913F095FB05A904A812F084
:108F600068F805A811F0FDFF04AA05A803A912F0EE
:108F70006FF805A903A812F05CF805A811F0F1FF3D
:108F8000049B019302229B5E002BE1DC039B181DD6
:108F9000019316F014FA041C04A811F0E2FF03A8D0
:108FA00011F0DFFF01E00124644206A813F094FBF6
:108FB000201C08B010BDC046C4250020F3060300E5
:108FC000FC06030013B5041CFFF7E8FE211C01A8F2
:108FD00001F04CFB019B0722191D054B186805F099
:108FE00087F9041C01A811F0BCFF201C16BDC04667
:108FF000C425002010B5002808DB041CFFF7CEFEB6
:10900000034B211C186805F063F800E0014810BD0F
:10901000C425002016FCFFFF10B5002808DB041C47
:10902000FFF7BCFE034B211C186813F0F8FB00E0AF
:10903000014810BDC425002016FCFFFF13B5041C19
:10904000FFF7ACFE211C01A801F010FB019B191DCC
:10905000044B186805F0D8F9041C01A811F081FF31
:10906000201C16BDC425002070B5061C0D1C141C48
:1090700000280BDB00290BDBFFF790FE054AE3B26B
:109080001068311C2A1C05F071F802E0024800E06B
:10909000024870BDC425002016FCFFFF17FCFFFF2F
:1090A00037B5002815DB0C1C051CFFF777FE211CCB
:1090B00001A801F0DBFA019B1A1D02215B5E064943
:1090C0000868291C05F07AF9041C01A811F049FF71
:1090D00000E0024C201C3EBDC425002016FCFFFF12
:1090E00038B500280BDB0C1C051CFFF757FE0549A3
:1090F000221D63880868291C05F060F900E0024819
:1091000038BDC046C425002016FCFFFF37B5051C3E
:109110000C1C002801DB002908DA01A800F02CF95A
:1091200001A800F069F9041C01A827E0FFF736FE4A
:10913000211C684611F0E8FA009B12491A1D0868C4
:109140005B88291C05F03EF8031E03DA01A800F035
:1091500013F906E0A0420CD001A86946002211F0E4
:10916000F1FA01A800F048F9041C01A811F0D4FAA2
:1091700003E0684600F040F9041C684611F0CCFAA0
:10918000201C3EBDC425002037B500280EDB041C82
:10919000FFF704FE064B01AD1868211C2A1C0123B1
:1091A00005F010F8012802D1287800E001483EBD02
:1091B000C425002016FCFFFF08B5044800F0E2FBC0
:1091C000FFF716FD024800F0FBFFFBE7042100203B
:1091D0001027000013B5011C684601F047FA094941
:1091E0006A46022301A804F031F801A801F04EFA02
:1091F000041C01A811F0B5FE684611F0B2FE201C57
:1092000016BDC0460821002013B50C4C201C13F0DD
:1092100006F9021C01A8002A03D1094901F03EFA0F
:1092200003E0211C002313F03DF901A801F02EFA00
:10923000041C01A811F095FE201C16BD0821002079
:10924000F2060300031C37B50D1C01A8191C01F020
:109250000DFA094C01A90022201C03F043FE01A8CD
:1092600011F07FFE2A1C20200121FFF7F7FC201CB3
:10927000002103F069FF37BD0821002007B5002851
:109280000BD0011C01A801F0F1F9044801A9022248
:1092900013F0FFF801A811F064FE07BD08210020BB
:1092A00007B500280DD0011C01A811F025FA019B7B
:1092B0000448191D5A88022303F0D8FE01A811F0B2
:1092C0002BFA07BD0821002013B5011E00DC402148
:1092D000684611F019FA009B10485A88191D02239C
:1092E00003F054FF009B021C5B8898420CD00123C2
:1092F00001A869465B4211F025FA684601A911F000
:1093000012FA01A811F008FA684600F075F8041C7A
:10931000684611F001FA201C16BDC0460821002045
:1093200070B50C1C161CFEF7E1FF051E10D0201CAA
:10933000FEF7DCFF00280BD00E210E22054C6956EB
:109340008256201C04F068F8201C311C03F04AFDF2
:1093500070BDC0460821002010B5064C1922201C03
:10936000182104F059F8E121201C490203F03AFDCC
:1093700010BDC04608210020014B03607047C04665
:109380003400030070B5061C0D1C141E02DC0B4BD0
:10939000036011E0101D01F059F8306011F0EBFF8F
:1093A0003068291C4480221C0430002D02D016F0A5
:1093B00026F801E016F040F870BDC0463400030006
:1093C000002907DB03685888814203DA59180A71BB
:1093D000002000E00048704717FCFFFF002906DB73
:1093E00003685A88914202DA5918087900E0014866
:1093F0007047C04617FCFFFF031C024A00681A6052
:109400007047C0463400030010B5002A11DB006825
:109410004488A2420DDC002B00DA231C8018A41A19
:1094200004301A1EA24200DD221C16F005F80020AE
:1094300000E0014810BDC04617FCFFFF38B5002B07
:109440001DDB00291BDB04686088814217DC15687E
:10945000401A6A88D21A824200DD021C002A0EDB02
:10946000201D4018AC4204D1E118043115F0D0FFA2
:1094700003E0E918043115F0C2FF002000E00148C4
:1094800038BDC04617FCFFFF70B50C1C04A90D7851
:10949000002C1ADB002B18DB0068E61841888E428E
:1094A00013DC002D09D000218019043099420AD024
:1094B000545C013804700131F8E70019111C0430C4
:1094C0001A1C15F09CFF002000E0014870BDC0464A
:1094D00017FCFFFFF8B5141C06AA1578002C1ADB40
:1094E000002B18DB0768E6187A88964213DC002DFB
:1094F00009D00022BC1904349A420AD0013C2078D9
:1095000088540132F8E7081C39191A1C043115F087
:1095100076FF002000E00148F8BDC04617FCFFFFC1
:1095200073B5061C0C1E00DC01246846311C11F0CA
:1095300034FD0F4D092E0CD9694601A811F071FDBB
:10954000281C01A9221C02F02BFD01A811F009FD25
:1095500009E00021684611F091FD0522011C6243DB
:10956000281C02F069FC684611F0FBFC73BDC04684
:10957000F02100201FB50A4B0C1C19684000091887
:1095800003A801F015F9002303A900931A1C019404
:10959000044802F0A9FC03A811F0ABFD1FBDC046B2
:1095A00000250020F021002037B5031C0C1E00DC34
:1095B0000124191C684601F059F8009B164D02223F
:1095C0009B5E002B07D1281C12F00DFB0520604389
:1095D00000F0F6FD1CE0012B09DD694601A811F041
:1095E00020FD281C01A9221C02F0DAFC0DE000215C
:1095F000684611F043FD011C01A811F0DBFC0522B7
:10960000281C624301A902F039FC01A811F0A9FC51
:10961000684611F0A6FC37BDF021002008B50248CD
:1096200011F08BFD08BDC046642200201FB50A4B17
:109630000C1C19684000091803A801F0B9F80023B0
:1096400003A900930193221C0533044802F00AFD8C
:1096500003A811F04EFD1FBD00250020F0210020C1
:109660001FB50D4B40001968091802A801F0A0F8B9
:1096700002A903A811F04AFD002303A90093019356
:109680001A1C064802F030FC03A811F032FD02A8B3
:1096900011F02FFD05B000BD00250020F0210020B5
:1096A00010B5002807D0041C10F0A1FD0248211CB1
:1096B000024A11F05AFB10BD53A80200DBAD0200B4
:1096C000024B40001B6818187047C0460025002058
:1096D0000A1C08B501B212B20248FF2301F080F85B
:1096E00008BDC04664220020F8B5FF23051C0E1CEF
:1096F000141E9C420ADC002A14DD9A4206D00A4F4E
:10970000381C12F024FA012807D1231C29B232B2E6
:10971000DBB2064801F064F8F8BD381C012112F0F4
:10972000F8F9F2E70023F1E7F0210020642200209D
:109730000A1C08B501B212B20248002301F050F829
:1097400008BDC046642200200A1C08B501B212B24E
:10975000034801F05BF8C317181AC00F08BDC046D4
:109760006422002008B5024812F0F3F908BDC04693
:10977000F021002008B5011C014802F0A3FC08BD3F
:10978000F021002008B5024802F08CFA08BDC0465E
:10979000F021002008B5C1B2014812F0BAF908BDA5
:1097A000F021002008B5024812F0D1F908BDC046EA
:1097B000F021002008B5031E034802D012F009FA78
:1097C00001E012F00BFA08BDF021002013B50649A4
:1097D00001A812F00DFA01A800F0FAFF041C01A87C
:1097E00011F087FC201C16BDF0210020014B588889
:1097F0007047C046C8200020014B98687047C0469B
:10980000C82000201423F0B5041C95B01922009341
:109810001821043003F0F0FA231C251C261C6433A5
:10982000181CB43513211193B83608F071FF281CA9
:1098300012F09EFE1E210022301C12F0F9F9201CAD
:10984000D03002F0CBFE231CEC33181C06214A4A10
:10985000129302F035F9201C002701226530131CF9
:1098600000971121FF3001F005FC201C8D3000977E
:109870001A2102220123FF3001F0FCFB201CB5302D
:10988000012102221A23FF3002F068FF231CC53396
:10989000FF331093311C181C3A22042301F0B0F955
:1098A00084239B00E31813931D230093183B01931B
:1098B000311C109A2B1C139801F028FE96239B0054
:1098C000E0181399109A129B02F000F899239B005C
:1098D000E018291C1C2203F0F5FE9F239B00E018D2
:1098E0000A2300930133019301330293013303935D
:1098F0000133049301330593013306930133079336
:10990000013308930133099301330A9301330B9315
:1099100001330C9301330D9301330E93013308226D
:109920000F930721103B12F08BF9EB239B00E018FB
:10993000291C05F04BF8F3239B00E0181D2103F0D0
:1099400039F9FD239B00E75011982770032115F08A
:1099500036F9231C221C201C08499C33A0321C60B1
:1099600011605760064A80305A610221012209F0D5
:10997000DDFC201C15B0F0BD3C000300B1AB0200C3
:109980009DAB02000123F0B5067889B01E4000D0DF
:10999000B1E0041CFD20800500F020FD231CD03325
:1099A000181C029300F0EEFA00F0E2F9282000F013
:1099B0004DFD051C103011F06EFB504B6E802B805E
:1099C000182000F043FD071C4D4B10C70390311CBD
:1099D0001022381C0693079615F02EFD06A90822C2
:1099E000381C15F00CFD474B039A02985361122363
:1099F000AA60EE60AB802E626E62291C02F064FDEC
:109A0000002805D0281C11F062FA281C00F040FD47
:109A10000122237864201343237000F0D1FB00253A
:109A2000271C6537FF37381C11F00DFE00283DD08C
:109A3000201C8D30FF3011F006FE002836D0092D95
:109A400034DC6420013500F0BBFB0A2DE8D1FD2693
:109A50002D482E49B60000F093FCA359002B1CD1D1
:109A600000F062F8011C04A800F018FE05A811F02F
:109A700011F901230093EB239B00E01804A9029B3A
:109A800005AA04F0F5FF05A811F06BFA04A811F07F
:109A900068FAED239B00E358A351EB23211C9B00A4
:109AA000E018EC313A1C05F07BF9B9E7FD261648C1
:109AB0001649B60000F064FCA559002D1BD100F03A
:109AC00033F8011C04A800F0E9FD05A811F0E2F844
:109AD000EB239B00E01804A9029B05AA009504F063
:109AE000C7FF05A811F03DFA04A811F03AFAED23DA
:109AF0009B00E358A35109B0F0BDC046FD03000030
:109B000025AC0200E5AB0200001C00200020002074
:109B1000BFF34F8F024A034BDA60BFF34F8FFEE76C
:109B20000400FA0500ED00E0F0B589B0192201A8A3
:109B3000124915F064FC00220524114B261C5A71B1
:109B4000802301255B055F6E381C311C0AF046F945
:109B5000081C291C0AF0BCF80523021C611E1C1BF2
:109B60005E435D4363439B1801AA3F1A9B5C044814
:109B70000C1E4354E8D109B0F0BDC0463C070300B9
:109B8000A6290020014B18607047C0461C25002004
:109B9000F0B597B018220021061C10A815F04CFC57
:109BA00010A8132115F045F910A8032115F008FAA3
:109BB0000122554B01921B68002B01D0DBB20193AF
:109BC00000240BA80021514A012309F00DFF221C9B
:109BD0004F4BB342624153421E4072B64D4B10226E
:109BE000211C07A81F6815F027FC4B4B6421301C73
:109BF00007930AF0FDF80A210AF0E0F90525694308
:109C0000503179180891301C0A210AF0F1F80A2124
:109C10000AF0D4F96943503179180991301C0A21AE
:109C20000AF0CCF94D4350357F190A978027BF01C0
:109C3000019B002B4BD00026384B751E1D4004D5D0
:109C40000423013D5B421D430135B300049300230F
:109C50000293032C02D180270024BF01049A07AB92
:109C6000D3582F4A9C4663000133D3180022039235
:109C700061461878095C581E05910178102008414A
:109C80000599084204D001209040039901430391B3
:109C900001320633092AEBD1039B07AAD943214B92
:109CA00009011940AB009B589C4505D1029B312B03
:109CB00002DC0BA8002101E039430BA815F078FA6B
:109CC000FA23159A1199DB001068014201D1FFF7C0
:109CD0001FFF013B002BF7D1029B0134013302939C
:109CE000FA23029A7F00E4B25B009A42B1D10136B6
:109CF000042EA1D1044B1B68002B99D0019B013B82
:109D0000DBB2019394E7C0461C250020F0FF000061
:109D1000E7030000042000208B07030003000080FD
:109D200055070300F01F0000F0B500281ADD0E4CA7
:109D3000421E2368151C0020DF0F9E097E405E40F6
:109D40001F0959087E409B0873404B40DB070B43BB
:109D500001214000194008436D08EDD19042E9D837
:109D6000236000E00148F0BD2025002017FCFFFF24
:109D700038B50023134C236010F0ADFF251C0028DC
:109D800008D0201C042110F0A2FF002819D00E4B8F
:109D9000236016E0012204210C4B1A602368002086
:109DA0000B4A506054680948002CFBD0A122D20015
:109DB00082581B02013913430029F0D12B60012383
:109DC000436038BD20250020ED5EBC0B00D0004074
:109DD000FCD00040F0B585B01F1C0AAB1B88061CE8
:109DE0000D1C02920393002F1BD0282000F02EFBA5
:109DF0006B46041C1A89039BA9B200933B1C11F00B
:109E00004FF83368301C5B68211C984700280BD042
:109E1000002C08D0201C11F05AF8201C00F038FB50
:109E200001E0024800E0024805B0F0BD17FCFFFF6A
:109E300016FCFFFF38B50B4B1C68002C10D0656D6D
:109E400000F0D0FBA36C002901D1834206D8201C6E
:109E500010F074FF201C044910F05DFF2C1CECE78F
:109E600038BDC0464825002050250020F0B5041C10
:109E700093B00793230C0293284B04901C68284B43
:109E800005911E68069285B20027002E43D0002C53
:109E90002DD0636D23490393A36C9AB21B0C8D42A2
:109EA00011D121498A420ED1002B02D0029A93424D
:109EB0001BD1002F18D1201C10F040FF201C1B4983
:109EC00010F029FF10E0002A01D0AA420DD1002B8A
:109ED00002D0029A934208D1201C10F02FFF201CC0
:109EE000124910F018FF00E00127039CCFE7104B48
:109EF000EB18012B0FD91023291C0093029A0D4B4C
:109F000008A810F0CDFF3368301C9B6808A998475B
:109F100008A810F0DCFF13B0F0BDC04644250020B7
:109F200054250020FE030000FF0300005025002000
:109F300002FCFFFF6D9E010010B572B60B4B1C6852
:109F4000002C03D0201C10F0F9FE08E062B65C2063
:109F500000F07CFA00215C22041C15F06DFA00234D
:109F6000E364034B201CE36310BDC046242500209E
:109F700000400020024B1878012318407047C0466B
:109F8000AC290020F7B5061CFFF7F4FF041E33D1FF
:109F90001A4D2E60FFF7D0FF194B1A49186010F0C8
:109FA000BAFEFFF7C9FF184B1860184B4363184BF4
:109FB0008363286800280ED0C027164E1649221C3D
:109FC000331C0097FFF706FF009728681349221CEF
:109FD000331CFFF7FFFE0C2000F038FA00238380CB
:109FE00083710F4B03600F4B836000F013FB012163
:109FF0000D4A13780B431370F7BDC046542500205B
:10A00000282500205025002058250020FC3F002056
:10A0100003AE02006D9E0100FF030000FE0300007E
:10A0200000FA0200359E0100AC290020F7B5002897
:10A0300001D1002019E00029FBD00193171C0D1C51
:10A04000061CFFF779FF041EF3D0084B019A436307
:10A05000066045608760064B002A00D0054B201C37
:10A06000A363054910F057FE201CFEBDFC3F0020F5
:10A07000CDAD0200EBAD020050250020024B186868
:10A08000434258417047C04650250020002310B578
:10A0900004499C006258002A01D00133F8E760505F
:10A0A000101C10BD2C250020002310B5044A990077
:10A0B0008C58844201D00133F8E70020885010BD4D
:10A0C0002C25002010B50024074BE058002802D0B2
:10A0D00003685B6898470434182CF5D1034B1B6860
:10A0E000002B00D120BF10BD2C25002050250020C2
:10A0F000F8B5FFF73FFF002855D02B4E3468351CCC
:10A10000E36CDA0718D502252B43E3640423274FB9
:10A110003868C26C1343C364636BC36310F034FECE
:10A120003B68181C596C05F02EFA3068C36C2B4242
:10A1300039D005F062FA36E01D4F1E4E3A68002A0B
:10A1400001D1326806E0216DB94203D1616D002969
:10A1500000D00A1C2A602A6831688A4208D11B078D
:10A1600006D52C60FFF7AEFF3B68002BFAD02B60C2
:10A170002B68A34217D03268934204D10E4A5A6327
:10A180000E4A9A6305E0944203D10020191C021C78
:10A1900006E0201C10F0F8FD2B68201C191C626CD6
:10A1A0005B6C05F0AFF9F8BD282500204C25002098
:10A1B0005025002058250020FC3F002003AE02005F
:10A1C00038B5114B051C1C68FFF7D4FE002803D1DD
:10A1D000281C14F016FE16E0E36CDB0706D5FFF72B
:10A1E000ABFE0A4B1860002800D0041C00F0FAF9FE
:10A1F0002818A064201C10F0A1FD201C044910F0B8
:10A200008AFDFFF775FF38BD282500204C2500206A
:10A2100048250020F0B51E4B85B01C681D4B1A6800
:10A220000393002A05D00F1C051CFFF7A3FE00288E
:10A2300001D119482AE0E36CDB070ED5FFF77CFE5D
:10A24000164B061E186008D010F078FD301C14491B
:10A2500010F061FD341CFFF74BFF3B042B43A3645C
:10A26000201C10F06BFD201C0E4910F054FD0E4B0D
:10A270000020EB18012B09D9C0230093039B291C54
:10A2800018683A1C094BFFF7A5FD002005B0F0BD8A
:10A29000282500205425002016FCFFFF4C25002017
:10A2A000502500204425002002FCFFFF6D9E010088
:10A2B00010B5FFF75FFE002809D0054C206810F0AC
:10A2C0003DFD2068034910F026FDFFF711FF10BD8A
:10A2D0002825002024250020F7B500282FD00C1CAD
:10A2E000051CFFF747FE00282BD00726164F3868BD
:10A2F000C36C1E4006D0281C211C144A10F035FDEA
:10A3000000261FE005F061F902213A68D36C19407C
:10A31000019103D003218B43D36413E0012633431F
:10A32000D364201CA8473A68D36C191CB143D1648C
:10A33000019E5B0706D5201C10F04FFD02E0044E85
:10A3400000E0044E301CFEBD28250020DBAD0200DD
:10A3500017FCFFFF16FCFFFF021C10B5014B12CBD0
:10A3600012C210BD5C250020034A044B12681A601B
:10A370007E225A607047C046042000205C250020E1
:10A3800070B5124D031C2A78022A1AD081421AD9BC
:10A390000A1A072A17D9081C032218431040041E62
:10A3A00011D11A1C72B62878094EC300F0189A51C0
:10A3B000416010F02CFD2B7801332B7062B6201C0D
:10A3C00002E0044800E0044870BDC046AD2900200A
:10A3D0006425002013FCFFFF17FCFFFF38B50021A8
:10A3E000041C09F051FE002823D1FE21201C890500
:10A3F00009F054FE00281CD104300EF0B9FC051CF5
:10A400000F48401B0AF07CFD211C0AF061FA09F09C
:10A41000A3FE03239843041C281C0EF0B3FC201C4D
:10A420000EF0A6FC002806D1203C002CF7D10548F0
:10A4300005E0054803E00119FFF7A2FF002038BD41
:10A440000038002013FCFFFF17FCFFFF38B5051C88
:10A4500000240D4B1B789C4209DA0C49E300C91813
:10A46000281C10F0DCFC00280AD10134F1E7281C7C
:10A470000EF07EFC041E04D11420FFF789FB00E0DF
:10A48000041C201C38BDC046AD29002064250020D6
:10A4900038B5002818D00D4B1C780023A34211DAE0
:10A4A0000B49DA005558A8420AD98A1852689042D6
:10A4B00006D28023043802681B061343036003E0BE
:10A4C0000133EBE70EF05EFC38BDC046AD2900203D
:10A4D0006425002070B5002816DD0C4B051C1A6899
:10A4E0001C1C0B4E002A02D0306814F042FBFA21EB
:10A4F000256000243068074B89008361C46269438A
:10A5000014F03FFB201C00E0034870BDA425002090
:10A5100074250020C1A5010017FCFFFFF8B5114FFD
:10A52000061C3D68002D0AD13020FFF78FFF041C68
:10A5300008F0B2F80C4BA5612360E5623C600B4D5E
:10A540002B68002B09D11020FFF780FF041C14F0AA
:10A55000FCFB201C2C6014F0D2FB301CFFF7BAFF70
:10A56000F8BDC0467425002088FE0200A02500200A
:10A57000014B18687047C046A425002070B50D4CEB
:10A580002368002B03D00C4B1B68002B02D1062044
:10A59000FFF7C4FF206814F0C9FB021C0749C3176A
:10A5A0000D684E685219734120680A604B6014F0C0
:10A5B000C3FB70BDA025002074250020D8200020FA
:10A5C00010B5FFF7DBFF0024054BE058002802D050
:10A5D00003681B6898470434282CF5D110BDC04689
:10A5E0007825002008B5FFF7C9FFFA22034B920037
:10A5F00018685968002309F065FD08BDD8200020BF
:10A6000008B5FFF7BBFF024B1868596808BDC04684
:10A61000D82000200B4B10B51B68041C002B03D066
:10A62000094B1B68002B02D10620FFF777FF0023A0
:10A63000064A99008858002801D00133F8E78C5069
:10A6400010BDC046A02500207425002078250020DC
:10A65000002310B5044A99008C58844201D001337C
:10A66000F8E70020885010BD7825002010B5041CA4
:10A67000002902D1044B036003E00160081C10F0C4
:10A680007DFE201C10BDC04654000300031C024A7E
:10A6900000681A607047C0465400030010B5041CDF
:10A6A000002902D00B78002B02D1034B236001E07C
:10A6B00010F05EFC201C10BD54000300F8B5051C12
:10A6C0000E1C141C00290AD00B78002B07D0002A7E
:10A6D00005D0081C97B214F0F7FE874202D90B4B45
:10A6E0002B6010E0601DFFF7B1FE286010F043FE04
:10A6F0002868221C4780311C043014F080FE2B682F
:10A700001C1900232371281CF8BDC0465400030007
:10A71000014B03607047C0465400030038B5096818
:10A72000041C0225485F824205DB094B1868206043
:10A7300010F024FE09E0801A984200DD181C043154
:10A74000891802B2201CFFF7B9FF201C38BDC04693
:10A75000A825002010B50548054C206010F00EFE1D
:10A76000201C0449044A14F051FD10BD540003009C
:10A77000A825002063AF020000200020084B73B51D
:10A780001D68002D0BD0011C041C2E680831082206
:10A79000684614F034FE0CCC3168281C884773BD21
:10A7A000AC250020014B03607047C0465C000300ED
:10A7B00010B5041C002902D1044B036003E00160C2
:10A7C000081C10F0DBFD201C10BDC0465C0003001F
:10A7D000031C024A00681A607047C0465C00030010
:10A7E00030B504686088814206DAA588AA4203DA97
:10A7F000002901DB002A01DA034804E05043611814
:10A8000008188371002030BD17FCFFFF10B50068E9
:10A810004388994206DA8488A24203DA002901DBE0
:10A82000002A01DA034803E053434118CB18987912
:10A8300010BDC04617FCFFFFF0B5071C85B00D1C0E
:10A840001E1C002923DD002A21DD002B1FD00468F7
:10A8500063880391994200DD0393A38802929A4290
:10A8600000DD0293002306340193019B029A934278
:10A870000BD0201C311C039A14F0C1FD3B687619E3
:10A880005B88E418019B0133EEE7002000E00148FB
:10A8900005B0F0BD17FCFFFFF8B5041C0E1C151C1D
:10A8A0001F1C002901DB002A02DA0D4B236015E092
:10A8B000101C48430630FFF7C9FD206010F05BFD17
:10A8C0002368201C5E809D80002F05D0311C2A1C2F
:10A8D0003B1CFFF7B1FF01E010F02FFCF8BDC046B4
:10A8E0005C000300F0B5061C87B00C1E05D00020EC
:10A8F0000F1C051C0190011C15E0224B03603EE07B
:10A900003022524294469C446246092A14D90A2BAA
:10A910000DD1019B2D1801330193A94200DA291CA6
:10A920000020051C01373B78002BE9D106E0002808
:10A93000F8D001350020F5E70120F3E76A46928858
:10A9400009B212B2301CFFF7A7FF33689D1D03AB9D
:10A950001F1C2278002A12D0111C3039092902D874
:10A960001A70013309E000221A70BB4205D9381C65
:10A9700014F025FD3B1C287001350134E9E7301C3B
:10A9800007B0F0BD5C000300F0B5041C87B004A85C
:10A99000151C1E1C0F1CFFF7DFFC23685A8895420C
:10A9A00008DA9B889E4205DA1F2F03D9059B009386
:10A9B0009F4201DD18482DE0052300217B430193D0
:10A9C000049B0293019B029ACB18A03BD35C00220C
:10A9D00003938B199C465319276800937888834208
:10A9E00002DABB889C4507DB0132052AF3D101312D
:10A9F0000529E7D100200DE063465843009BFB1872
:10AA0000102717411818039B1F407B1E9F417F4250
:10AA10008771E9E707B0F0BD17FCFFFFF7B50368E2
:10AA20009E1D5B885A1A019200291CDD0C1C051C16
:10AA30000027994202DB10F080FB12E02B689B8814
:10AA40009F420EDA3119301C019A14F0D8FC019B98
:10AA5000211CF01810F054FB2B6801375B88F618A6
:10AA6000ECE7002000E00148FEBDC04617FCFFFFF8
:10AA700010B50548054C206010F080FC201C0449EE
:10AA8000044A14F0C3FB10BD5C000300B025002095
:10AA9000F3B002000020002010B5054C0121201C5D
:10AAA00010F060FC201C0349034A14F0AFFB10BDFA
:10AAB000B425002023B302000020002008B5074A77
:10AAC00003880120934208D0834202D00020DB0794
:10AAD00003D41E20FFF75CF8002008BDFFFF000034
:10AAE00010B5041C034B08330360FFF7DDFA201C8C
:10AAF00010BDC04610FA0200FA2370B52A4A4189F7
:10AB00009B005943131C3833041C181C083A1D6859
:10AB10001E1C8D420CD2061C244B227B1D1D082AB4
:10AB20000BD8042A09D89D1C022A06D81D1C04E053
:10AB3000083B301C9342EAD1EEE7FA2130688900E5
:10AB400009F0C6F860812B78201C23732A2100228B
:10AB500010F037FC002801D0154824E0201C2B21E0
:10AB6000102210F02EFC0028F6D1201C2D210122ED
:10AB700010F027FC0028EFD1201C2E21012210F01C
:10AB800020FC0028E8D16A78201C0E2110F019FC66
:10AB90000028E1D101223379201C1A432A2110F028
:10ABA00010FC0028D8D170BD640003006B090300BD
:10ABB0000EFCFFFF7FB5161C0F226A44041C1D1CEF
:10ABC0001170002E15D0002B13DD01230189009395
:10ABD000006B01F0CBFA002801D007480AE0009092
:10ABE0002189206B321C2B1C01F076FA002801D041
:10ABF000F3E7024804B070BD0EFCFFFF17FCFFFF37
:10AC0000F7B5061C00250193214B14360833041CAC
:10AC1000036085808571C581058245820F1C009285
:10AC2000291C1822301C14F007FC301C1C2114F0C5
:10AC300000F96B469B88211CA3806B461B8802226F
:10AC4000238114236381231C3E313833A571227381
:10AC500027631D705D700B7865879343F132134055
:10AC6000221CA5870B70231C4832157055800135B6
:10AC7000221DD5870833A21DD587201CDD87FFF74D
:10AC80003BFF002802D1A3791D43A571201CFEBD06
:10AC900010FA020030B50425837987B0041C2B42DA
:10ACA00004D1FFF7F3F9A3792B43A371A36AA26937
:10ACB0001B6800251A422AD1201C01216A4606235E
:10ACC000FFF778FF002801D0124D20E06B460221EB
:10ACD0006846595600781B79227B40B25BB25143DB
:10ACE0005343424389B2D200E281CA002282022247
:10ACF0009BB2DB006382A379201C9343A37110F005
:10AD00006EFB0122A18802A8131C10F0CFF9281CA9
:10AD100007B030BD0EFCFFFFF8B5041CFFF7BAFF0B
:10AD20000E22A35E7C4F5B42BB4205DA231C3E33FE
:10AD30001B789B0700D5C6E0201CFFF7ABFF0E2257
:10AD4000A35EC8225B4200255200934205DD231C0E
:10AD50003E331B789B0700D4B5E0201CFFF79AFF19
:10AD60001022A35E5B42BB4205DA231C3E331B78F4
:10AD70005B0700D5B5E0201CFFF78CFF1022A35E17
:10AD8000C8225B425200934205DD231C3E331B78F0
:10AD90005B0700D4A5E0261C201CFFF77BFF1222D6
:10ADA000A35E4836BB4205DA231C3E331B781B07E3
:10ADB00000D5A3E0201CFFF76DFF1223E25EC8233D
:10ADC0005B009A4205DD231C3E331B781B0700D431
:10ADD00094E0002D19D03378032B16D80133DBB261
:10ADE0003370012B04D1231C00224A331A800CE05B
:10ADF000042B0AD1221C01213E3213784A340B4322
:10AE00001370002323800B3384E03278002A1AD099
:10AE1000211C271C01254A310B883E3701339BB288
:10AE20000B803878AC46054008D01D2B0BD9634603
:10AE30009843002338700B80337004E0092B02D94B
:10AE4000013A0D803270201C10F034FB334A072386
:10AE500090425FDD201CFFF71DFF0E23E25E304EA7
:10AE600052420323B24255DBC825201CFFF712FFD4
:10AE70000E23E25EAD0052420423AA424ADC201CAB
:10AE8000FFF708FF1023E25E02235242B24241DB89
:10AE9000201CFFF7FFFE1023E25E01235242AA426C
:10AEA00038DC201CFFF7F6FE1223E25E0523B242D7
:10AEB00030DB201CFFF7EEFE1223E25E0623AA42DF
:10AEC00028DC002326E00125211C281C3E310B78BC
:10AED0005A089043021C0220AA40834313430B707C
:10AEE0003BE70125211C281C3E310B789A08904332
:10AEF00082000420834313430B704CE7211C012282
:10AF00003E310B78D80882430820D2008343134394
:10AF10000B7060E7181CF8BD70FEFFFFFF700200A9
:10AF2000E0FCFFFF08B510F070FB064909F0D0FC0B
:10AF30000BF01AFE044A054B0AF052FB0BF0A2FD7F
:10AF400008BDC0460000B443EA2E4454FB2119401A
:10AF500008B510F063FB064909F0BAFC0BF004FEDB
:10AF6000044A054B0AF03CFB0BF08CFD08BDC046C3
:10AF70000000B443EA2E4454FB21194070B5C36964
:10AF8000C2681B688AB0041C451D1A4250D0EB7F72
:10AF9000002B01D0013BEB77EB7F082B0DD9012370
:10AFA000A2791A4209D11A43A271A1881A1C06A8D3
:10AFB00010F07CF8FFF716FB2062EB7F012B26D800
:10AFC0000123A2791A4222D00025A188A57102A8E6
:10AFD000022210F06BF8A31DDE7F012E17D1FFF7C0
:10AFE00001FB2B1C226A801A994100900191019B60
:10AFF000A18806A8AB4203D1164B009A9A4202D907
:10B000000422012301E00322331C10F04FF8032334
:10B01000A2791340012B1AD1FFF7E4FA0023226A28
:10B02000801A9941994208D10B4B984205D80EE0FD
:10B03000EB7F0B2BB0D80133ADE70222A379A188B7
:10B040001343A37106A80332012310F02FF80AB0AE
:10B0500070BDC046E7030000DB05000010B5041C0E
:10B06000034B08330360FFF7F3FA201C10BDC04602
:10B0700028FA0200F0B5071C00250E1C85B00293CB
:10B080000AAB1B7808370393104B041C083303608A
:10B09000019285808571291C381C182214F0CCF986
:10B0A000381C311C039A13F0C9FE6B466A469B8814
:10B0B000127AA380A31DE671DA77631D2562201C36
:10B0C000DD77FFF7A7FA201C05B0F0BD28FA0200D3
:10B0D00010B5041C034B08330360FEF7E5FF201C8A
:10B0E00010BDC04640FA02007FB5161C0F226A440C
:10B0F000041C1D1C1170002E15D0002B13DD012324
:10B1000001890093C06B01F031F8002801D0074895
:10B110000AE000902189E06B321C2B1C00F0DCFF60
:10B12000002801D0F3E7024804B070BD0EFCFFFF19
:10B1300017FCFFFF002330B585B003AC21700189F7
:10B140000093051C221CC06B013301F00FF800288E
:10B1500001D00A480FE02070607029890090221CFD
:10B16000E86B022300F0B8FF0028F2D12078637862
:10B170000002184300B205B030BDC0460EFCFFFF10
:10B1800013B56B46DC1D0023221C23700133FFF72F
:10B19000ABFF002801D1207800E0014816BDC04671
:10B1A0000EFCFFFFD0B5041C10F075FA2269E369AC
:10B1B000981A0BF09DFCA369061CE0680F1C181A76
:10B1C0000BF096FC021C0B1C301C391C0CF0BEF959
:10B1D0000022104B0AF042FE0F4A104B0AF000FA10
:10B1E0000BF016FD0021041C08F044FF002804D0D9
:10B1F000201C0B4908F0FEFF041C201C0BF0B4FCC3
:10B20000021C0B1C002007490BF0C2F80BF03AFCA3
:10B21000D0BDC04600806640EA2E4454FB21094060
:10B220000000B44300807640F0B5041C89B0006C87
:10B2300010F0F4F9051C206C10F0E7F90221071C4E
:10B24000201C10F059FA02210590201C10F066FA1B
:10B2500009F00EFE02210190201C10F071FA09F095
:10B2600007FE0290281C0BF07FFC041C0D1C0CF048
:10B270001DF90BF0CDFC291C0390201C0CF0C4F828
:10B280000BF0C6FC0490381C0BF06EFC041C0D1C6B
:10B290000CF00CF90BF0BCFC291C071C201C0CF05A
:10B2A000B3F8069007910399029809F011FB0499ED
:10B2B000041C019809F00CFB011C201C09F03AFC4D
:10B2C0000BF052FC051C05980E1C09F0D1FD041C66
:10B2D000069807990BF09CFC011C201C09F0F8FA59
:10B2E000391C041C019809F0F3FA039909F0F0FAEB
:10B2F000011C201C08F07EFF391C041C029809F078
:10B30000E7FA049909F0E4FA011C201C08F072FF26
:10B310000BF02AFC021C0B1C281C311C0CF016F92B
:10B3200000220C4B0AF09AFD0B4A0C4B0AF058F91C
:10B330000BF06EFC0021041C08F09CFE002804D0D9
:10B34000201C074908F056FF041C201C09F070FD62
:10B3500009B0F0BD00807640EA2E4454FB2119402C
:10B360000000B443F8B510210022041C10F085F948
:10B370001D4E002834D1201C0821FFF701FFB042E8
:10B380002ED00325054027D1FA23184A61899B0056
:10B390005943131C50331E1C083A1F68181C8F4257
:10B3A00003D3083B061C9342F7D1FA213068890089
:10B3B00008F08EFC11216081A022201C10F05DF9A4
:10B3C00000280DD101223379201C1A43102110F0DE
:10B3D00054F9002805D003E06420FEF7F1FECAE727
:10B3E000014D281CF8BDC0460EFCFFFFA400030061
:10B3F000F0B50426041C807985B03040051E16D1B6
:10B400000227201C10F047F9A3790622BB433343DF
:10B41000A371A188012368460FF048FEA379281C78
:10B420001A1CB243A2713B4202D1024800E002481A
:10B4300005B0F0BD14FCFFFF15FCFFFF10B58379CC
:10B440005A070ED4041C9B0701D4FFF7D1FF236CCD
:10B45000201C002B02D0FFF7E7FE03E0FFF7A2FE5F
:10B4600000E0014810BDC04615FCFFFF70B5466CFA
:10B4700086B001AC051C01916260A360002E0CD067
:10B480000B4905A8FFF70AF9301C05A9221C0C235B
:10B4900011F0A9F805A80FF064FD2B1C0C3307CCA4
:10B4A00007C30222AB791343AB7106B070BDC0462F
:10B4B00071090300642330B5041C0281438185B007
:10B4C0008180FFF74FFF0222A379606C9343A37141
:10B4D000002813D00C4911F051F8051E0ED0011CA4
:10B4E0000C22103101A813F08AFF201C0199029A46
:10B4F000039BFFF7BBFF281CFEF7CAFF0122A379BD
:10B500001343A37105B030BD71090300F7B5009373
:10B5100008AB1B88041C019309AB1D8800230F1C7A
:10B52000161C0D4A8380083283710260C360036178
:10B5300043618361C36103621D21243010F090F8E0
:10B54000009BE7632664201C291C6364019AFFF7B3
:10B55000B1FF201CFEBDC04640FA020082B0F0B52B
:10B56000051CA3B064202993289213F04AFC0C21F7
:10B57000042207A811F0D8FBCF49242219A813F000
:10B580003EFF052104A80A1C0FF0E0FDCB4905A8E9
:10B59000FFF7A8F9A86800F085FBAC68C84916A8B1
:10B5A000FFF77CF8201C16A9782200F0CFFC16A823
:10B5B0000FF0D7FC6E246420013C13F022FC002C19
:10B5C000F9D1A86800F06EFBA86810F00CFB01210F
:10B5D00068680FF08AFF0121071C68680FF098FF68
:10B5E000061C0A2013F00DFC0022B64B03929F426A
:10B5F00010DB013203923A1CC8320BDB04220392A7
:10B60000C8229200974205DC03220392C82F01DC76
:10B61000013A0392002202929E4210DB0123029320
:10B62000331CC8330BDB04230293C8239B009E42C8
:10B6300005DC03230293C82E01DC013B02935D2647
:10B6400004A80FF07AFD02ABF618371C7B78002BAC
:10B6500006D07B1E19783A7804A8FF23FFF7C0F8BC
:10B66000812302AA03379B189F42EFD16B460C211E
:10B67000595E6B4604A808229A5EFF23FFF7B0F8D4
:10B680000023A8680093743004A91A1C0FF065FD0C
:10B69000731E1B78039A934234D13378029A9342F3
:10B6A00030D17778002F2DD1391C286810F024F87C
:10B6B00009F0DEFB3A1C031C211C07A811F07FFBDC
:10B6C000391C286810F02AF809F0D2FB0122031C6B
:10B6D000211C07A811F073FB391C286810F030F802
:10B6E00009F0C6FB211C031C022207A811F067FB0E
:10B6F000FE23211C9B0507A8032211F060FB0123F8
:10B700007370E418812302AA03369B189E42BFD1AE
:10B71000642013F076FB0B2C00DC58E707A811F02F
:10B720003AFB0122011C0AA811F0FEFA002407A826
:10B7300011F031FB84423EDA211C002207A811F0EF
:10B740002CFB211C061C002207A811F026FB011C63
:10B75000301C09F0BDF8211C061C012207A811F0BD
:10B760001CFB0122071C211C07A811F016FB011C61
:10B77000381C09F0ADF8011C301C08F03BFD211C01
:10B78000061C022207A811F008FB0222211C071C3C
:10B7900007A811F002FB011C381C09F099F8011CE4
:10B7A000301C08F027FD211C031C00220AA811F000
:10B7B00006FB0134BBE707A90A1C012316A812F0F7
:10B7C000CBF816A90DA811F014FB16A811F008FB70
:10B7D00010A807A90AAA012312F0BEF8002313A893
:10B7E0000DA910AA12F0B8F8002113A80A1C11F034
:10B7F000D4FA0121061C002213A811F0CEFA00226F
:10B80000041C022113A811F0C8FAFC21071C8905A9
:10B81000301C09F05DF809F00BFBFC21061C1690AA
:10B820008905201C09F054F809F002FBFC21041CD6
:10B8300017908905381C09F04BF809F0F9FA221C19
:10B84000031C311C18902868FFF710FEA86810F040
:10B85000CAF905A906A8AC680FF058FC00231A4ADB
:10B86000009306A90192201C1A1C00F0B9FA06A840
:10B870000FF03FFCFA20800013F0C3FAA86810F024
:10B88000B2F913A811F0ACFA10A811F0A9FA0DA89A
:10B8900011F0A6FA0AA811F0A3FA05A80FF029FCE6
:10B8A00004A80FF026FC07A811F09AFA23B0F0BC08
:10B8B00008BC02B01847C0467C090300A009030079
:10B8C000E5090300E0FCFFFFDC050000F0B5836044
:10B8D000204B85B01F68051C01604260002F36D0E8
:10B8E0002820FEF7B3FD041C10300FF0D4FB052315
:10B8F0002380013363801820FEF7A8FD164B061C39
:10B900000293002320C6191C01901022301C0393BF
:10B9100013F092FD02A90822301C13F070FD0F4BAA
:10B92000019A381C53610023E360C233A3800023D3
:10B93000A260236263623B68211C5B689847002811
:10B9400005D0201C0FF0C3FA201CFEF7A1FD281C17
:10B9500005B0F0BDAC2500205DB50100E1B70200E7
:10B96000F0B5041C85B0637A9C46002B03D1201CE3
:10B970000FF060FF69E0A37A012101931023266F85
:10B98000019AF3560025D31899400291291CF368B7
:10B990000393039B9D4231DAB368019A6B439B1872
:10B9A00072695B00E77AD3181A785878E379012F27
:10B9B00004D15F1E3F1A101C3A1C0EE0022F05D165
:10B9C0005F1EBA1A277A013F381A06E0032F04D106
:10B9D000277A013FBF1A021C381C5B004343606F8B
:10B9E0008218D3189B79634500DD6346627B1A4257
:10B9F00002D00123AB4019430135CAE71123C943E3
:10BA0000F356606C994023691940029B194313F067
:10BA1000CFFBA37B072B18D8627B581C52006273A4
:10BA20000B499A00A073022B03D8885813F0DEF953
:10BA300099E7084B201C236300236363064B895856
:10BA4000E4622364143013F09CF805B0F0BDC046E6
:10BA5000FC00030061B9010021B8020010B5041C0C
:10BA6000044B036013F085F8201C06F02BFE201C0D
:10BA700010BDC04688FE020010B5041C0E4B0833F2
:10BA80000360FEF7E5FD201C74300FF032FB201C34
:10BA900060300FF02EFB201C58300FF062FA201C93
:10BAA00050300FF05EFA201C044B14306361FFF736
:10BAB000D5FF201C10BDC04658FA020070FE0200DF
:10BAC000F8B50025041C314B85800833036085716F
:10BAD0001430161C0F1C06F0DFFD201C2C4BE562F9
:10BAE000636125645030FEF713FE201C5830FEF7CA
:10BAF0000FFE201C6030FEF755FE201C33682667C1
:10BB0000590009B20423F25E74300FF01FFB337842
:10BB1000226FE3717368A78023721023E572A57208
:10BB20002561D356916859188B4204DA0120984058
:10BB300001330543F8E71123D168D35659188B42D6
:10BB400006DA01229A402069013302432261F6E7B6
:10BB50001420FEF77BFC226900212A430123061CE6
:10BB600007F042FFFF226272221C002301254832A7
:10BB700066646573A3732373201C1370A366FEF7BA
:10BB800049FDA379201C2B43A371F8BD58FA02008C
:10BB900070FE0200F7B5437A041C002B03D1201C71
:10BBA0000FF048FE64E0837A01219C461023066F63
:10BBB0000025F356634499400091291CF3680193D2
:10BBC000019B9D422CDAB36872696B4363445B004E
:10BBD000E77AD3181A785878E379012F04D15F1ED9
:10BBE0003F1A101C3A1C0EE0022F05D15F1EBA1A34
:10BBF000277A013F381A06E0032F04D1277A013F44
:10BC0000BF1A021C381C5B004343606F8218D318B4
:10BC10009B79002B02D00123AB4019430135CFE7BC
:10BC20001123C943F356606C994023691940009B66
:10BC3000194313F0BDFA667AB31EDBB2FC2B14D89D
:10BC4000FEF796FC0B4B051C236300230A48636335
:10BC50000A4BFF21E4622364704308F0C9F8011C19
:10BC6000201C6943143012F08CFF637A012B96D9A3
:10BC7000F7BDC04635B80200B603000021B8020087
:10BC80001FB501228188131C68460FF00FFA0122AC
:10BC900068460349131C0FF009FA05B000BDC04601
:10BCA000FE0300001FB5031C48331A78041C002A49
:10BCB0000DD000221A7001328188131C68460FF0E3
:10BCC000F5F9012268460449131C0FF0EFF9201C16
:10BCD00074300FF032FA1FBDFF03000008B5483082
:10BCE0000378002B06D00378012B03D002480121F2
:10BCF0000FF063F808BDC046FF03000010B5012136
:10BD0000041C06200FF059F8064B984209D1231C59
:10BD100048331A78002A04D01B78012B01D020BFA9
:10BD2000F5E710BD16FCFFFF70B5051C141E09DBFE
:10BD3000061C48363378002B06D03378012B03D00D
:10BD40000B4813E00B4811E00022281C131C743030
:10BD5000FEF71AFE0020844207D02B1C4A331C80B9
:10BD600007234C352880337000E0201C70BDC0468E
:10BD700012FCFFFF17FCFFFFF8B50B68051C5B8882
:10BD8000171C012B09D1081C00210FF077F90022A4
:10BD9000011C281CFFF7C8FF1DE0002A09DD061C56
:10BDA00048363378002B06D03378012B03D00A486D
:10BDB00011E00A480FE02B1C0024281C5C331C8077
:10BDC00058300FF036F92B1C4A331F800323201CF8
:10BDD0004C352C803370F8BD12FCFFFF17FCFFFFC1
:10BDE00073B5079C051C002C09DB061C483630780F
:10BDF000002806D03078012803D00D4816E00D4801
:10BE000014E0069812B2C0B20090281C1BB2743025
:10BE10000FF0A3F90020844207D02B1C4A331C806A
:10BE200007234C352880337000E0201C76BDC046C7
:10BE300012FCFFFF17FCFFFFF8B5002A16DB041CFD
:10BE4000151C0F1CFFF74AFF231C48331E78F6B25F
:10BE5000002E0DD1201C391C2A1CFFF765FF281E5F
:10BE600007D0201CFFF74AFF301C02E0014800E029
:10BE70000148F8BD17FCFFFF11FCFFFFF7B5002AD2
:10BE800029DD051C171C0E1CFFF728FF2B1C48334F
:10BE90001C78E4B2002C20D133685B88012B09D1D7
:10BEA000211C301C0FF0EAF8221C011C281CFFF793
:10BEB0003BFF13E0311C01A80FF0B3F801A93A1CB5
:10BEC000281CFFF759FF01A80FF04BF8281CFFF7BB
:10BED00015FF201C02E0024800E00248FEBDC046FB
:10BEE00017FCFFFF11FCFFFFF0B587B00D9E002E81
:10BEF00022DB041C039302920F1CFFF7EFFE231CAE
:10BF000048331D78EDB2002D18D1391C05A80FF06B
:10BF1000FDF80C9B05A90093029A039B0196201C37
:10BF2000FFF75EFF05A80FF0E4F8301E07D0201CD5
:10BF3000FFF7E4FE281C02E0024800E0024807B0D8
:10BF4000F0BDC04617FCFFFF11FCFFFFF8B5041C55
:10BF5000171E09DD061C48363378002B06D03378CF
:10BF6000012B03D00C4816E00C4814E0221CE379A6
:10BF70005632013B1370231C0025201C54331D80B6
:10BF800050300FF056F8231C4A331F800223281C20
:10BF90004C3425803370F8BD12FCFFFF17FCFFFF07
:10BFA000F7B5002A1BDD051C161C0F1CFFF796FEBB
:10BFB0002B1C48331878C4B2002C12D1391C01A8AC
:10BFC0000FF02FF801A9321C281CFFF7BFFF01A8B2
:10BFD0000EF0C7FF281CFFF791FE201C02E002486C
:10BFE00000E00248FEBDC04617FCFFFF11FCFFFF4A
:10BFF000F8B5041C161E09DD071C48373A78002ADC
:10C0000006D03A78012A03D0144826E0144824E0E8
:10C010005D42069BFF3301D16B1D00E0069B221C95
:10C020009BB264321380231C201C66331D70603069
:10C030000FF074F8221C00236C3213709D4200D064
:10C04000B3B2221C4A321380079B00205A1E934130
:10C05000013E4C34053326803B70F8BD12FCFFFFD7
:10C0600017FCFFFFF0B587B0002A21DD051C039304
:10C07000161C0F1CFFF732FE2B1C48331C78E4B251
:10C08000002C17D1391C05A80FF040F80C9B05A90E
:10C0900000930D9B321C0193281C039BFFF7A8FF04
:10C0A00005A80FF026F8281CFFF728FE201C02E048
:10C0B000024800E0024807B0F0BDC04617FCFFFF91
:10C0C00011FCFFFFFF2902D84172002000E0014867
:10C0D0007047C04617FCFFFFF0B51F1C85B00AABC8
:10C0E0001B78041C039300933B1C0D1C161C12F0C0
:10C0F000DAFD002832D0237D082B2DD823680022BA
:10C10000191CFC318A62A0211648C9005A50844685
:10C110001A5005200138C046C046C046C046C04639
:10C12000C046C046C046C046C046C046C046F1D123
:10C13000012062462368985005225A5007F0C6FA3B
:10C14000039B201C0093291C3B1C321C12F0ABFDEE
:10C15000237D01332375CCE7034800E0207505B04B
:10C16000F0BDC046FC0F00000EFCFFFFF0B51F1C29
:10C1700085B00AAB1B78041C039300933B1C0D1C79
:10C18000161C12F078FD002832D0237D082B2DD804
:10C1900023680022191CFC318A62A0211648C900BC
:10C1A0005A5084461A5005200138C046C046C04641
:10C1B000C046C046C046C046C046C046C046C0464F
:10C1C000C046F1D1012062462368985005225A509A
:10C1D00007F07CFA039B201C0093291C3B1C321C9B
:10C1E00012F049FD237D01332375CCE7034800E0BD
:10C1F000207505B0F0BDC046FC0F00000EFCFFFF2F
:10C2000030B5041C87B0057B006C07F0C1FAA02292
:10C2100000210E4BAD00D200285199500C4A143128
:10C220009950636C217B5B7C6846C91849B20FF05A
:10C23000BBFD039B019A03211A60207B0130C0B231
:10C2400007F0CCFD217307B030BDC0460070004040
:10C250000405000082B070B5041C002588B00C9263
:10C260000D93636C9A6895420ADA197C02A86918E2
:10C2700049B20FF099FD069B039A01351A60F0E769
:10C280005B7C257B02A8ED186DB2291C0FF08CFD9C
:10C29000039A059B01921A600021182202A813F04C
:10C2A000CBF802A8291C002212F0C8FD206C00283F
:10C2B00001D0FEF7EDF80820FEF7C8F8291C061C8F
:10C2C00007F03EFA094B201CE3620023FA212363A6
:10C2D000074B2664A462E3631030090112F051FC9D
:10C2E00008B070BC08BC02B01847C04601C20100CB
:10C2F00055BD0200F0B5041C0E1C151C85B0009342
:10C300000CAB1B88103001930EF0C5FE26806580B3
:10C310001820FEF79BF8071C02AD2B1C3E1C0AAA36
:10C3200003CA03C3009B002108C6301C102213F06F
:10C3300083F8291C301C082213F061F8064B0222F6
:10C340007B61201C00230199A7600A43E360A2805F
:10C350002362636205B0F0BD69BD020070B5051CC3
:10C36000041C10350E1C302286B00021281C13F04E
:10C3700063F8281C06F090F900231A4A66642261CB
:10C38000194AA3621668E363237323606360A360A2
:10C390009E4221D0154A282004920593FEF756F8B4
:10C3A0006A4604AB051C03CB03C2C02306210293DB
:10C3B000281C231C0222FFF79DFF3368301C5B689A
:10C3C000291C9847002807D0002D05D0281C0EF006
:10C3D0007EFD281CFEF75CF80023201C236406B0B9
:10C3E00070BDC04670FE0200AC25002055C20100A1
:10C3F00030B5134B91B01D68041C002D17D0114BA4
:10C400006A4604930023059304AB03CB03C21023B5
:10C41000062102930222231C06A8FFF76BFF2B685C
:10C42000281C9B6806A9984706A80EF050FD201C02
:10C43000054B10302361FFF711FB201C11B030BDFC
:10C44000AC25002055C2010070FE020070B5002925
:10C4500026D00D1C0026C468002C1ED00222A988FC
:10C46000A3884B40134216D1114203D1AB889B07DE
:10C4700007D510E0A068A96810F045FC002804D199
:10C48000F4E7A368AA68934205D12B88002B09D052
:10C4900022889A4206D0646ADEE7201C002E0DDC5A
:10C4A00007480BE06B88002B02D062889A42F2D1D9
:10C4B000A388044A01361343A380ECE770BDC0464D
:10C4C00017FCFFFF0080FFFFF0B585B0002952D0B8
:10C4D0000D1C061CC468002C19D0AA8800239207E2
:10C4E00002D5A3889B07DB0F226829688A420CD1FA
:10C4F000002B06D0A068A96810F005FC00283CD1EC
:10C5000003E0A368AA68934237D0646AE3E7F0685F
:10C510002A88071C031E22D01988914205D2596A25
:10C520001F1C00290DD00B1CF6E7191C3B1C08E052
:10C530000C88944207D14F886C88A74203D20B1C09
:10C54000496A0029F4D183420BD119888A4205D364
:10C55000914206D158886988884202D96B62F56099
:10C5600002E0596A69625D626846094901230EF07A
:10C570009DFD002009E0074807E0A3881AB2002AC1
:10C5800002DA5B045B0CA380034805B0F0BDC04633
:10C59000FD03000017FCFFFF16FCFFFF064B10B564
:10C5A0001A1C041C08322C33026043600430FDF76F
:10C5B0007BFD201C10BDC04670FA020008B4024B7F
:10C5C0009C46043808BC60479DC5010008B4024B76
:10C5D0009C46043808BC60470FBE02000C4A00238A
:10C5E000111C2C32083110B5038183724260C36084
:10C5F0000361436143830160041C0430FDF746FD81
:10C60000044B1A68002A00D11C60201C10BDC046D3
:10C6100070FA0200AC250020F7B50E1C0125C46895
:10C620000192002C37D0238832889A4201D0002B07
:10C6300026D1638872889A4201D0002B20D1FDF761
:10C6400099FC0123002806D0A288BF331340C03BC9
:10C650005A425341DBB2019A934210D1A7883BB2B0
:10C66000002B0CDB201C311C1030102212F0C7FEF6
:10C670007B0607D4FDF77EFC002803D006E00025EA
:10C68000646ACEE7201C0FF0CBFBF9E7211C0348BE
:10C69000FDF722FEF4E7281CFEBDC04621BE0200C5
:10C6A00008B4024B9C46043808BC6047A5BF020092
:10C6B000F0B587B001930EAB1B88061C03930D9B4E
:10C6C0000D1C0093019B02920C9F002B3DD0002F6C
:10C6D00002D1009BDB0738D52820FDF7B7FE041CEC
:10C6E00010300EF0D8FC6B461B8925806380182023
:10C6F000FDF7ACFE0497071C051C009B0021059369
:10C70000019B102208C7381C12F096FE04A90822CB
:10C71000381C12F074FE0E4B02226B610023A560E0
:10C720000399E3602362636233680A43A2805B6813
:10C73000301C211C9847002808D0201C0EF0C7FB95
:10C74000201CFDF7A5FE034800E0034807B0F0BD3C
:10C75000D1BF020016FCFFFF17FCFFFFF0B5041C61
:10C76000161C00258380164A164B857102602181B4
:10C7700046810573186889B08C46A8421DD0124ABC
:10C78000059504926A4604AB82CB82C2C0236146FF
:10C7900002932A1C231CFFF78BFF0B4A094B0692BE
:10C7A0006A461868079506AB82CB82C2C023311C4B
:10C7B00002932A1C231CFFF77BFF201C09B0F0BD4D
:10C7C000B8FA0200AC250020FBC0020030B50024FE
:10C7D00003730123034D8471056081808273437369
:10C7E000846030BDD0FA020038B58379041CDB07C1
:10C7F00002D58068FDF74CFEA3799B0702D5A0689F
:10C80000FDF746FEA3795B0707D5A0230021144A54
:10C81000DB00D150A068FDF73BFEA3791B0708D5CC
:10C82000A568002D05D0281C11F0FBF8281CFDF789
:10C830002FFEA379DB0605D5A068002802D0036887
:10C84000DB6898476023A2791A4205D0A0680028C7
:10C8500002D003685B6898470023A360A37138BDCA
:10C8600000700040F7B50227037B3B4227D0012927
:10C8700027D800918579041C3D4015D1FFF7B4FFFE
:10C880001820FDF7E3FDA37B291C1822061C019349
:10C8900012F0D2FD6B460421301C595612F0EAFA10
:10C8A000A379A6603B43A371A36800995A68002945
:10C8B00003D0DB681A60002004E01B69FAE7024835
:10C8C00000E00248FEBDC04616FCFFFF17FCFFFF5C
:10C8D000F7B50127037B3B422DD061238579041CEA
:10C8E0001D4018D1FFF780FF1820FDF7AFFDA37B97
:10C8F000291C0093637B1822061C019312F09CFDF7
:10C900006B460021301C5956019A12F097FAA37910
:10C91000A6603B43A3716023A2791A4203D0A068AA
:10C9200012F046F908E0A268536950681B68184085
:10C93000431E984100E00148FEBDC04616FCFFFFC3
:10C9400038B5037B1B0715D50C4B994214D80D1C29
:10C95000041C0FF071FC031C002083420DD1281C25
:10C9600008F086FA064907F0C1FD011CA06802F034
:10C97000A5FE02E0034800E0034838BDFF030000C5
:10C9800000C07F4416FCFFFF17FCFFFF70B50425B5
:10C99000037B2B4215D08379041C2B420DD1FFF76A
:10C9A00023FF0820FDF752FD0E21061C615606F0FC
:10C9B000C7FEA379A6602B43A371A06806F0E8FE2A
:10C9C00000E0014870BDC04616FCFFFFF7B5012727
:10C9D000037B3B421AD010238579041C1D4011D1E2
:10C9E000FFF702FF2820FDF731FD0E21A2886156D6
:10C9F0003B1C0095061CFEF73DFB1022A379A660A8
:10CA00001343A371A0680EF01EFE00E00048FEBDB7
:10CA100016FCFFFF70B5037B1B0715D5002915DB3E
:10CA20000E1C041C0FF008FC051E11D1A06802F0BA
:10CA300059FE0949884202D0A06802F059FEA06858
:10CA4000311C06F051F804E0044D02E0044D00E012
:10CA50000025281C70BDC046204E000016FCFFFFBC
:10CA600017FCFFFFF8B5047B24071FD500291FDB47
:10CA7000002A1DDD002B1BDDB42900DDB421FA27BF
:10CA8000BF007943061C081CB421151C1C1C07F0B0
:10CA9000AFF968436D10641B7C43391C001907F023
:10CAA000A7F9011C301CFFF7B5FF02E0014800E0C8
:10CAB0000148F8BD16FCFFFF17FCFFFF08B583799E
:10CAC0001B0703D5806802F013FE00E0004808BD94
:10CAD00016FCFFFF10B50124837941731C4004D07C
:10CAE000806812F06DFA002007E06022134203D044
:10CAF000806812F064F8F6E7004810BD16FCFFFFEE
:10CB0000F8B560238679041C0D1C1E4025D1FFF763
:10CB10006BFE5820FDF79AFC0E21071C615600F0B1
:10CB200045FE381CA760617B12F049F80121A0681E
:10CB3000104B114F43620462866247630A1C1C302B
:10CB400006F0F4FBA0680D4B8463C3630664C764FE
:10CB500002211C30012206F0E9FB6022A3799343F5
:10CB6000403A012D02D0022D01D140221343002072
:10CB7000A371F8BDBDC2020025C20200E1C20200DD
:10CB800008B5032912D8031C081C07F097F80B02FC
:10CB90000206181CFFF7B4FF02E0181CFFF716FF8F
:10CBA000002004E0181C0FF0ADFBF9E7004808BDB9
:10CBB00017FCFFFF70B5041C00250D4B0E1C08333D
:10CBC000858085710360211C18300FF0D2FB201C7A
:10CBD000211C20300FF0F0FB064BA680A571E571FB
:10CBE0002572E56025616561201C1C6070BDC04632
:10CBF000E0FA0200B82500208379DB0702D5C16086
:10CC0000002000E00048704716FCFFFF8379DB0737
:10CC100001D5C06800E001487047C04616FCFFFF20
:10CC200038B54569002D22D0037A032B21D8041C86
:10CC3000FFF7ECFFA8622C20FDF708FC2C22002156
:10CC4000051C12F0F9FB0023626953622369002B73
:10CC500001D1226105E0596A002901D00B1CFAE7D5
:10CC60005A62237A656101332372002002E0024890
:10CC700000E0024838BDC04617FCFFFF13FCFFFF71
:10CC8000154B70B55A68154D002A03D000225A6022
:10CC90000132AA601B69114E002B1CD000210E4BE3
:10CCA0000F4C19618023DB00F358012B0ED1A9230F
:10CCB000DB00F15820684942FFF79EFF2068FFF72C
:10CCC000AFFF23685A69074BF25002E02068FFF774
:10CCD00093FF0123AB6070BDFC10004000100040CA
:10CCE000B825002004050000031C0069002809D0B5
:10CCF0000221054AD167426A1A611A7A013A1A7208
:10CD0000024B19607047C04604E100E000E100E01A
:10CD1000F0B5234B85B01B785B073FD5041C12F0A0
:10CD200022F80025236CC6B20227DF5FBD420EDA6F
:10CD3000201C29B240300EF0A1F9B04205D10122E9
:10CD400068462021131C0EF0B1F90135EEE7251CD1
:10CD5000231C4E3528884C331978013007F02EF902
:10CD6000231C50331B8889B28B4211D02B88A26CB4
:10CD7000D654636C2980002B10DB2A889A420DD18F
:10CD8000012302225B426364684620219B1803E072
:10CD900068462021032201230EF088F905B0F0BD7A
:10CDA000AE2900200121024A13780B43137070470B
:10CDB000AE2900200221024A13780B4313707047FA
:10CDC000AE2900200121024A13788B43137070476B
:10CDD000AE2900200221024A13788B43137070475A
:10CDE000AE29002008B5002903DB024B196011F0C1
:10CDF0001DFF08BDBC25002070B5041C1E1C04AB23
:10CE00001D7805F053FD201C0E4B40302360FDF7CC
:10CE10007FFC231C01364C330135221C1E701D7310
:10CE20000023E1214E32A364636513805380938114
:10CE3000D381013B201C63644902FFF7D3FF201C10
:10CE400070BDC046F0F9020038B5012A13D0031CAA
:10CE5000051C4E331B88141CC8182B1C4C33197826
:10CE600007F0ACF869640025022C05D1211C2020B4
:10CE70000DF0A3FF00E0014D281C38BD17FCFFFF9B
:10CE800070B5051C041C0A1C5035002907D1031C71
:10CE90004E331B882A889A4212D111481FE001297B
:10CEA00006D12A88231C4E331B889A42FAD007E009
:10CEB000022905D1031C4E331B88298899420AD0C8
:10CEC000A36C28884C341E5C2178013007F076F87A
:10CED000301C298003E00121FFF7B6FFF0E770BDA9
:10CEE0000CFCFFFF38B5012A0BD04030141C002584
:10CEF0000EF09FF8022C05D1012120200DF05DFFDE
:10CF000000E0014D281C38BD17FCFFFFF0B5061CE2
:10CF1000071C5C365A3733883A8885B09A421FD04E
:10CF2000104B1B781B071BD5041C3388426DD15C4A
:10CF300011F01DFF231C308858331978013007F099
:10CF40003DF83B888DB2AB4209D1074968460222C1
:10CF500001230EF0ABF8201C01210FF094FA35806C
:10CF600005B0F0BDAE290020FF03000070B5114DE3
:10CF7000041C2B781B0705D501210FF084FA606D86
:10CF8000FDF786FA08262B78B3432B70231C583301
:10CF90001878FDF75BFA6065002809D0231C002093
:10CFA0005A3318802B785C341E4320802E7000E0AA
:10CFB000014870BDAE29002013FCFFFFF7B50F1C20
:10CFC00008A9051C09780430002A01D1DC070FD517
:10CFD000002F0DD0182618244E43AE1973614B1C38
:10CFE0005C43054B2C193261F7600122A36000E01D
:10CFF000002206F0A7FCF7BDE3C30200F0B5041C55
:10D00000002589B0039104920593049B9D420EDA9A
:10D01000261C231C5A36378858331978781C06F09A
:10D02000CDFF231C5C331B8889B2994207D1059B35
:10D03000012B0BD002210B48FDF7ECF806E0039B17
:10D04000626D5B5D0135D3553180DEE70123201C25
:10D050000093211C044A0023FFF7B0FF281C09B0ED
:10D06000F0BDC046FF0300000DCF0100F7B5194C1D
:10D070002578AD0729D4002A29DD002927D01F1CD7
:10D08000161C0191051CFFF795FE23781B0701D59F
:10D09000002407E0281CFFF769FF0028F8D017E0FC
:10D0A000B4420DDA019B321B1919281C3B1CFFF7F7
:10D0B000A5FF391C2418281C0FF0D5F9002FEFD13B
:10D0C000281CFFF787FE201C02E0034800E003480D
:10D0D000FEBDC046AE2900200DFCFFFF17FCFFFF80
:10D0E000F0B5164E85B03378051C5B0705D50021D9
:10D0F0000FF0C9F9A86CFDF7CBF904273378BB43CF
:10D1000033702B1C4C331878FDF7A0F9A864002865
:10D1100010D02B1C00244E331C805C803378281CDC
:10D120003B433370291C0094054A231CFFF746FF3C
:10D13000201C00E0034805B0F0BDC046AE29002029
:10D1400011CD010013FCFFFF70B50E4E3378DB07E5
:10D1500016D40C1C051CFFF725FE33785B0709D598
:10D16000211C281CFFF78CFE041C281CFFF72AFE3C
:10D17000201C06E0281CFFF7B3FF0028F0D000E0D9
:10D18000014870BDAE2900200DFCFFFFF7B52C4C07
:10D190002578ED0751D41F1C161C0191051CFFF7C3
:10D1A00001FE23785B0703D5002F14D13C1C0AE055
:10D1B000281CFFF795FF0028F6D03FE0B44237DA8D
:10D1C000019B18550134281C0021FFF759FE1D4B07
:10D1D0009842F3D12CE0019C012F0ED1019BE31A60
:10D1E000B34206DA281C0121FFF74AFE2070013401
:10D1F000F4E7F443E41734401AE00024022F17D177
:10D20000281C0FF00FF9864207DD281C0FF00AF9E1
:10D210003A1C311A281CFFF717FE0024B44207DA23
:10D22000281C0221FFF72CFE019B18550134F5E75D
:10D23000281CFFF7C7FD201C00E00348FEBDC046C8
:10D24000AE2900200CFCFFFF0DFCFFFFF0B58BB0FA
:10D2500002AF7B606F4BB8601B780C1C161CDA07A2
:10D260005ED45B0708D4081CFFF73AFF011E03D009
:10D27000B8680DF092FEC9E0201CFFF793FD231C57
:10D2800050331B88FB607B6101235B423B61231CA5
:10D290004E333B601B887A699A4244D03B69013324
:10D2A00041D10025A36C7A699B5C3B603368022204
:10D2B0009B5E9D420ADA29B2301C0DF0DFFE3B680E
:10D2C000984201D17B693B610135EFE7231C786906
:10D2D0004C331978013006F071FE7961D7E7231CD1
:10D2E0004E331B887A699A42F9D0A36C9B5C7B60B1
:10D2F00000233B61336802229B5E3A699A4217DB46
:10D30000231C78694C331978013006F057FE796197
:10D310006B1CE4D0002D3EDA201CFFF753FDB868EB
:10D32000FDF7F6F972E07B683D69012B0CD1EFE760
:10D330001023F95E301C0DF0A1FE7B68984200D1ED
:10D340007D693B690133D4E77B68022BE2D13B69FD
:10D350000133DFD11C23311CF8180DF062FE1C23B1
:10D360007A68F918201CFFF7BDFD1C23F8180DF092
:10D37000F8FD3B681D881C23F818FDF7C9F91C232C
:10D38000201CF91840300DF054FE1C23F818013D04
:10D390000DF0E7FDBEE76B467B60FB68EE1AAB4223
:10D3A00005DD231C4C331A78FB68D21A5619331C3E
:10D3B00069460833DB08DB00CB1A9D4602AB721CC2
:10D3C000181C00217B6112F037F8231C4C333B61A1
:10D3D000ADB21A78FB680195251C0093201CA16C46
:10D3E0007B6950350FF007F828883B6901301978C0
:10D3F000801906F0E3FD201C2980FFF7E3FC32B220
:10D40000B8687969FDF75AF97B689D46BD46B868EA
:10D4100009B0F0BDAE29002070B5224B86B01B7854
:10D420009B0701D020483AE0041C161C0D1CFFF796
:10D43000C1FC201CFFF7B6FC201C0FF003F80028ED
:10D4400003DD201C01210FF01EF8201C00210FF02D
:10D450001AF8291C0025201D321C06F0D5F9201CC5
:10D460000095211C114A2B1CFFF7A8FD201C0EF073
:10D47000E9FFA84207DD0123201C0093211C0C4A70
:10D480002B1CFFF79BFD0B4B201C1968FFF7AAFC18
:10D49000201CFFF797FC201CFFF79CFC002006B027
:10D4A00070BDC046AE2900200DFCFFFF11CD01006C
:10D4B0000DCF0100BC250020F7B580277F053D6911
:10D4C0007C690822113C6C43061C211C684611F043
:10D4D00096FF104B009A9A4219D0009300230193B3
:10D4E0007969301C133969430FF002F8019A301C36
:10D4F00000990FF015F8301C211C0EF0F9FF796926
:10D50000AB0813396943301C221C0EF0FBFF019855
:10D51000FEBDC046FECA0000F0B50D1CABB00D92BA
:10D5200000213022061C12A80B9311F085FF281C45
:10D5300011F0CAFF431C0C93102B00DDB6E00B9BCF
:10D54000202B00D9B2E0301C291C0FF017F8071E61
:10D5500029D1291C0C9A12A811F051FF0D990B9A90
:10D5600016A811F04CFF80235B051F695A69301C17
:10D57000113A7A435D690D92FFF79EFF0D9B0021E2
:10D5800008333022041C1EA80F9311F055FF291CEC
:10D5900013397943301C0EF0ABFF0F9B0B93002324
:10D5A0000C930E9335E010300D990B9A11F018FF83
:10D5B000041C381CFCF76CFF002C7AD0C9E70B99CF
:10D5C0001EA8302211F01BFF1EA812A911F06AFF3D
:10D5D000002822D13849301C221C109111940EF0E1
:10D5E0009FFF6A460B9B099315AB23CB23C223CB2A
:10D5F00023C223CB23C2301C149B1299139A0EF022
:10D600009DFF01230E930B9B30330B930C9B013337
:10D610000C930C9BA342D2DB10E06A460B9B099350
:10D6200021AB23CB23C223CB23C223CB23C2301C69
:10D630001E991F9A209B0EF081FFE4E7E5433021FD
:10D64000ED1725404D430F9B5D190E9B002B1BD101
:10D65000B81E06F03DFB84422AD017490134301C25
:10D66000221C109111940EF05BFF6A46099515ABD0
:10D6700023CB23C223CB23C223CB23C2301C12993A
:10D68000139A149B0EF05AFF301C0D990EF030FFC8
:10D6900080235B0559690C236343133979430233B3
:10D6A000301C0D9A0EF02EFF002402E0034C00E027
:10D6B000034C201C2BB0F0BDFECA000017FCFFFF7E
:10D6C00013FCFFFF38B58280FA2200230D4D920033
:10D6D0000835056041618371C26083604382041C28
:10D6E000081C09490EF04AFF051E09D0011C201C28
:10D6F00010311230022211F082FE281CFCF7C8FE05
:10D70000201C38BDF8FA0200F309030030B50225E9
:10D71000837987B0041C2B4204D1FCF7B7FCA379B2
:10D720002B43A371201C0EF06FFF00282BD06B46FB
:10D73000DD1C281C0EF05FFF2B78002B03D001A806
:10D740000EF057FF0EE00122104B1A60104B5A6882
:10D75000002AFBD000225A600E4B01321B68019355
:10D760000A4B5A60019BDA17920FD3189B10238241
:10D77000FCF738FF0122E368A1881818A060131C89
:10D7800002A80DF093FC002007B030BD00C000409F
:10D79000FCC0004008C5004010B5041C024B0360EB
:10D7A00004F0AAFF201C10BD18FB020010B5041CD9
:10D7B00004F0AEFF034B002223600023201C2265EF
:10D7C000636510BD18FB0200022802D10122014B43
:10D7D0001A707047AF29002038B5064C051C237815
:10D7E000002B04D1044802F0BFFD01232370281C44
:10D7F00038BDC046B0290020C9D7010038B50C1C7F
:10D800000DF069FA002811D0154B00221D1C1A706A
:10D81000A40A201C0EF026FF002803D00A2011F0D5
:10D82000F0FAF6E72B78002BFCD018E002210D4A25
:10D830000D4B9950111C8022D20098580028FAD024
:10D84000A120094DC0002C5098580028FCD0002081
:10D85000054A50508022D2009A58002AFAD038BD8A
:10D86000AF2900200405000000E00140F8B50D1CC0
:10D87000161C1C1C0DF02FFA002812D0184B002289
:10D880001F1C1A70281C311C221C0EF0E9FE0028F7
:10D8900003D00A2011F0B5FAF4E73B78002BFCD056
:10D8A0001CE0104A012194460F4B99508022D2006F
:10D8B0009A58002AFAD000228027FF00A24207DAF5
:10D8C000910070586850D9590029FCD00132F3E713
:10D8D000002261465A50DA59002AFCD0F8BDC046F1
:10D8E000AF2900200405000000E00140F0B587B03A
:10D8F0000C9CA405A40D5FD10F1C03928A05920D08
:10D900000092D2188D0A029203993A1C061CAD02AD
:10D910000EF0AAFE00280AD1FF240322391C029B24
:10D92000A40004339343214001930C9511E00C9B18
:10D93000002B41D0191C8023301C5B002A1CFFF7F0
:10D9400095FF291C301CFFF759FF8023211CDB00A9
:10D95000019300230593019B99422BDA184B0B404E
:10D9600004D50422013B524213430133009ADB00E9
:10D97000914206DB029A914203DA039A0098121A46
:10D9800000E00C9A525C03279A40131C059A4C1C29
:10D990001343059327400BD1CB179B0F59188910C0
:10D9A00089006918301C05AA0123FFF75FFF05975E
:10D9B000211CD0E7002000E0024807B0F0BDC046BF
:10D9C0000300008017FCFFFFF8B50F1C041D051CA9
:10D9D000201C161CFCF79CFE201C391C0DF029FB9A
:10D9E0000A4B1C68002C07D11C20FCF72FFD0021DE
:10D9F0000A1C041C00F0A6F93968321C0431201CF2
:10DA000000F076FC2860281CF8BDC046C425002024
:10DA100010B50468002C07DB131C0A1C03490868B6
:10DA2000211C00F0CBFC00E0014810BDC425002003
:10DA300016FCFFFF10B50468002C0BDB002A0BDB83
:10DA4000002909D0131C0A1C04490868211C00F095
:10DA5000B9FB02E0024800E0024810BDC4250020E6
:10DA600016FCFFFF17FCFFFF036870B5002B11DBEE
:10DA7000151C094A0E1C041C191C106802230022E4
:10DA800000F074FB031E06DB201C311C2A1CFFF770
:10DA9000BFFF00E0014870BDC425002016FCFFFF59
:10DAA000016810B500290ADB064B041C18680EF04B
:10DAB000B6FE031E04DB044B2360031C00E0034B93
:10DAC000181C10BDC425002013FCFFFF16FCFFFF2F
:10DAD000F0B5051CC468408A85B000020019800AB0
